:020000040800F2
:10000000002800202D0C0008D10B0008D70B000899
:10001000DD0B0008E30B0008E90B000800000000FE
:10002000000000000000000000000000EF0B0008CE
:10003000FB0B000800000000070C0008130C000870
:10004000750C0008750C0008750C0008750C00088C
:10005000750C0008750C0008750C0008750C00087C
:10006000750C0008750C0008750C0008750C00086C
:10007000750C0008750C0008750C0008750C00085C
:10008000750C0008750C0008750C0008750C00084C
:10009000750C0008750C0008750C0008750C00083C
:1000A000750C0008750C0008750C0008750C00082C
:1000B000750C0008750C000800000000750C0008A5
:1000C000750C00080000000000000000750C00081E
:1000D00000000000750C0008750C0008000000000E
:1000E000750C0008750C0008750C00080000000075
:1000F0000000000000000000000000000000000000
:0C01000000000000000000005FF808F1A3
:10010C0010B5054C237833B9044B13B10448AFF345
:10011C0000800123237010BD0C00002000000000A3
:10012C00801A000808B5034B1BB103490348AFF311
:10013C00008008BD0000000010000020801A00089C
:10014C0080B582B000AF7860C7F800C07B68013B17
:10015C00082B00F27D8101A252F823F08D010008DA
:10016C00DD0100082D0200087D020008CD02000808
:10017C001D0300086D030008BD0300080D040008F2
:10018C0001222021C84801F055F800224021C64820
:10019C0001F050F800228021C34801F04BF80122F5
:1001AC004FF48071C04801F045F801224FF4007102
:1001BC00BD4801F03FF801224FF48061BA4801F0CC
:1001CC0039F801224FF40061B74801F033F867E1C8
:1001DC0000222021B44801F02DF800224021B24821
:1001EC0001F028F801228021AF4801F023F8002209
:1001FC004FF48071AC4801F01DF800224FF40071EF
:10020C00A94801F017F801224FF48061A64801F0CB
:10021C0011F800224FF40061A34801F00BF83FE104
:10022C0000222021A04801F005F8002240219E4820
:10023C0001F000F8002280219B4800F0FBFF002217
:10024C004FF48071984800F0F5FF01224FF40071D3
:10025C00954800F0EFFF01224FF48061924800F0C6
:10026C00E9FF00224FF400618F4800F0E3FF17E133
:10027C00012220218C4800F0DDFF002240218A4819
:10028C0000F0D8FF00228021874800F0D3FF012224
:10029C004FF48071844800F0CDFF01224FF40071BF
:1002AC00814800F0C7FF00224FF480617E4800F0C7
:1002BC00C1FF00224FF400617B4800F0BBFFEFE070
:1002CC0000222021784800F0B5FF01224021764819
:1002DC0000F0B0FF00228021734800F0ABFF002239
:1002EC004FF48071704800F0A5FF01224FF40071AB
:1002FC006D4800F09FFF00224FF480616A4800F0C7
:10030C0099FF00224FF40061674800F093FFC7E0AB
:10031C0000222021644800F08DFF01224021624818
:10032C0000F088FF002280215F4800F083FF00224C
:10033C004FF480715C4800F07DFF00224FF4007197
:10034C00594800F077FF00224FF48061564800F0C6
:10035C0071FF00224FF40061534800F06BFF9FE0E7
:10036C0000222021504800F065FF002240214E4819
:10037C0000F060FF002280214B4800F05BFF01225F
:10038C004FF48071484800F055FF01224FF4007182
:10039C00454800F04FFF01224FF48061424800F0C5
:1003AC0049FF01224FF400613F4800F043FF77E022
:1003BC00002220213C4800F03DFF002240213A4819
:1003CC0000F038FF00228021374800F033FF002274
:1003DC004FF48071344800F02DFF00224FF400716F
:1003EC00314800F027FF00224FF480612E4800F0C6
:1003FC0021FF00224FF400612B4800F01BFF4FE05F
:10040C0000222021284800F015FF00224021264818
:10041C0000F010FF00228021234800F00BFF002287
:10042C004FF48071204800F005FF01224FF4007159
:10043C001D4800F0FFFE00224FF480611A4800F0C6
:10044C00F9FE00224FF40061174800F0F3FE27E09C
:10045C0000222021144800F0EDFE00224021124819
:10046C0000F0E8FE002280210F4800F0E3FE00229D
:10047C004FF480710C4800F0DDFE00224FF4007147
:10048C00094800F0D7FE00224FF48061064800F0C6
:10049C00D1FE01224FF40061034800F0CBFE00BFF7
:1004AC0000BF0837BD4680BD0008014080B586B04E
:1004BC0000AF07F120037B6000F0D8FB00F0B8FA26
:1004CC0000F0F2FA05237B6103233B610023FB6000
:1004DC000123BB607B69002B15D1FB68002B05D178
:1004EC0003237B61FB680133FB600CE0FB68012B91
:1004FC0005D102237B61FB680133FB6003E005231C
:10050C007B610023FB603B69002B15D1BB68002B82
:10051C0005D103233B61BB680133BB600CE0BB68B6
:10052C00012B05D102233B61BB680133BB6003E0A7
:10053C0005233B610023BB603B1D9C46F86800F023
:10054C00F3F93B1D9C46B86800F030FA3B1D9C4605
:10055C007869FFF7F5FD3B1D9C46386900F00CF8F7
:10056C007B69013B7B613B69013B3B614FF47A70DA
:10057C0000F0DEFBAEE7000080B582B000AF786023
:10058C00C7F800C07B68013B082B00F29B8101A2DD
:10059C0052F823F0C50500081B0600087106000878
:1005AC00C70600081D07000873070008C9070008E4
:1005BC001F0800087508000801224FF40071C0489C
:1005CC0000F038FE00224FF48061BD4800F032FE8E
:1005DC0000224FF40061BA4800F02CFE01224FF4C7
:1005EC008051B74800F026FE01224FF40051B44868
:1005FC0000F020FE01224FF48041B14800F01AFEB9
:10060C0001224FF40041AE4800F014FE85E10022B7
:10061C004FF40071AA4800F00DFE00224FF48061E7
:10062C00A74800F007FE01224FF40061A44800F037
:10063C0001FE00224FF48051A14800F0FBFD002286
:10064C004FF400519E4800F0F5FD01224FF480411B
:10065C009B4800F0EFFD00224FF40041984800F059
:10066C00E9FD5AE100224FF40071954800F0E2FDDB
:10067C0000224FF48061924800F0DCFD00224FF420
:10068C0000618F4800F0D6FD00224FF480518C4859
:10069C0000F0D0FD01224FF40051894800F0CAFD52
:1006AC0001224FF48041864800F0C4FD00224FF433
:1006BC000041834800F0BEFD2FE101224FF4007190
:1006CC007F4800F0B7FD00224FF480617C4800F0B9
:1006DC00B1FD00224FF40061794800F0ABFD01221E
:1006EC004FF48051764800F0A5FD01224FF40051E3
:1006FC00734800F09FFD00224FF48041704800F0D9
:10070C0099FD00224FF400416D4800F093FD04E187
:10071C0000224FF400716A4800F08CFD01224FF466
:10072C008061674800F086FD00224FF40061644848
:10073C0000F080FD00224FF48051614800F07AFDFA
:10074C0001224FF400515E4800F074FD00224FF47A
:10075C0080415B4800F06EFD00224FF40041584888
:10076C0000F068FDD9E000224FF40071544800F00D
:10077C0061FD01224FF48061514800F05BFD0022C5
:10078C004FF400614E4800F055FD00224FF48051AB
:10079C004B4800F04FFD00224FF40051484800F048
:1007AC0049FD00224FF48041454800F043FD0022F2
:1007BC004FF40041424800F03DFDAEE000224FF402
:1007CC0000713F4800F036FD00224FF480613C4838
:1007DC0000F030FD00224FF40061394800F02AFD92
:1007EC0001224FF48051364800F024FD01224FF4D1
:1007FC000051334800F01EFD01224FF48041304877
:10080C0000F018FD01224FF400412D4800F012FDBC
:10081C0083E000224FF40071294800F00BFD002208
:10082C004FF48061264800F005FD00224FF4006172
:10083C00234800F0FFFC00224FF48051204800F0C8
:10084C00F9FC00224FF400511D4800F0F3FC00228B
:10085C004FF480411A4800F0EDFC00224FF40041A7
:10086C00174800F0E7FC58E000224FF400711448E0
:10087C0000F0E0FC00224FF48061114800F0DAFC3B
:10088C0000224FF400610E4800F0D4FC00224FF41B
:10089C0080510B4800F0CEFC01224FF40051084867
:1008AC0000F0C8FC00224FF48041054800F0C2FC67
:1008BC0000224FF40041024800F0BCFC2DE000BFC8
:1008CC00000C014000224FF40071164800F0B2FCFD
:1008DC0000224FF48061134800F0ACFC00224FF46E
:1008EC000061104800F0A6FC00224FF480510D4826
:1008FC0000F0A0FC00224FF400510A4800F09AFCD2
:10090C0000224FF48041074800F094FC01224FF480
:10091C000041044800F08EFC00BF00BF0837BD4604
:10092C0080BD00BF000C014080B582B000AF786084
:10093C00C7F800C07B68002B0FD1002202211A4897
:10094C0000F078FC01220421174800F073FC01220E
:10095C000821154800F06EFC21E07B68012B0FD1BB
:10096C0001220221104800F065FC012204210E48EE
:10097C0000F060FC002208210B4800F05BFC0EE04C
:10098C0001220221084800F055FC002204210648EF
:10099C0000F050FC01220821034800F04BFC00BF82
:1009AC000837BD4680BD00BF0008014080B582B04D
:1009BC0000AF7860C7F800C07B68002B0FD1002215
:1009CC0002211A4800F036FC01220421174800F0DD
:1009DC0031FC01220821154800F02CFC21E07B6839
:1009EC00012B0FD101220221104800F023FC01221F
:1009FC0004210E4800F01EFC002208210B4800F0D8
:100A0C0019FC0EE001220221084800F013FC002220
:100A1C000421064800F00EFC01220821034800F0D6
:100A2C0009FC00BF0837BD4680BD00BF000C01406B
:100A3C0080B590B000AF07F11803282200211846AA
:100A4C0001F010F83B1D00221A605A609A60DA60BF
:100A5C001A610223BB610123BB621023FB620023DA
:100A6C007B6307F11803184600F0FCFB0346002BD0
:100A7C0001D000F06FF80F237B600023BB600023D4
:100A8C00FB6000233B6100237B613B1D002118466A
:100A9C0000F068FE0346002B01D000F05BF800BFAD
:100AAC004037BD4680BD000080B586B000AF07F171
:100ABC00080300221A605A609A60DA60224B9B6924
:100ACC00214A43F0040393611F4B9B6903F0040319
:100ADC007B607B681C4B9B691B4A43F0080393614A
:100AEC00194B9B6903F008033B603B68002240F6FE
:100AFC00EE71164800F09EFB00224FF60E61144872
:100B0C0000F098FB40F6EE73BB600123FB60002302
:100B1C003B6102237B6107F1080319460B4800F087
:100B2C000FFA4FF60E63BB600123FB6000233B61A1
:100B3C0002237B6107F108031946054800F000FA0F
:100B4C0000BF1837BD4680BD0010024000080140B0
:100B5C00000C014080B400AF72B600BFFEE700008D
:100B6C0080B485B000AF154B9B69144A43F0010368
:100B7C009361124B9B6903F00103BB60BB680F4B85
:100B8C00DB690E4A43F08053D3610C4BDB6903F0F5
:100B9C0080537B607B680A4B5B68FB60FB6823F0CF
:100BAC00E063FB60FB6843F08063FB60044AFB6816
:100BBC00536000BF1437BD4680BC70470010024024
:100BCC000000014080B400AFFEE780B400AFFEE748
:100BDC0080B400AFFEE780B400AFFEE780B400AF96
:100BEC00FEE780B400AF00BFBD4680BC704780B448
:100BFC0000AF00BFBD4680BC704780B400AF00BFE3
:100C0C00BD4680BC704780B500AF00F075F800BFE2
:100C1C0080BD80B400AF00BFBD4680BC70470000F3
:100C2C00FFF7F7FF0B480C490C4A002302E0D4589D
:100C3C00C4500433C4188C42F9D3094A094C00231C
:100C4C0001E013600432A242FBD300F0E7FEFFF791
:100C5C002DFC7047000000200C000020C41A000876
:100C6C000C0000202C000020FEE7000080B500AF37
:100C7C00084B1B68074A43F010031360032000F075
:100C8C002BF90F2000F008F8FFF76AFF0023184635
:100C9C0080BD00BF0020024080B582B000AF7860FC
:100CAC00124B1A68124B1B7819464FF47A73B3FB2C
:100CBC00F1F3B2FBF3F3184600F035F90346002BC1
:100CCC0001D001230EE07B680F2B0AD80022796833
:100CDC004FF0FF3000F00BF9064A7B6813600023DD
:100CEC0000E0012318460837BD4680BD00000020F7
:100CFC00080000200400002080B400AF054B1B78D6
:100D0C001A46054B1B681344034A136000BFBD46CB
:100D1C0080BC7047080000202800002080B400AF81
:100D2C00024B1B681846BD4680BC7047280000204B
:100D3C0080B584B000AF7860FFF7F0FFB8607B68D7
:100D4C00FB60FB68B3F1FF3F05D00A4B1B781A46DA
:100D5C00FB681344FB6000BFFFF7E0FF0246BB6873
:100D6C00D31AFA689A42F7D800BF00BF1037BD46B5
:100D7C0080BD00BF0800002080B485B000AF786053
:100D8C007B6803F00703FB600C4BDB68BB60BA6845
:100D9C004FF6FF031340BB60FB681A02BB6813439A
:100DAC0043F0BF6343F40033BB60044ABB68D360B9
:100DBC0000BF1437BD4680BC704700BF00ED00E09B
:100DCC0080B400AF044BDB681B0A03F00703184622
:100DDC00BD4680BC704700BF00ED00E080B483B01E
:100DEC0000AF03463960FB7197F90730002B0ADB23
:100DFC003B68DAB20C4997F907301201D2B20B44B6
:100E0C0083F800230AE03B68DAB20849FB7903F067
:100E1C000F03043B1201D2B20B441A7600BF0C37FD
:100E2C00BD4680BC704700BF00E100E000ED00E073
:100E3C0080B489B000AFF860B9607A60FB6803F0E9
:100E4C000703FB61FB69C3F10703042B28BF0423D1
:100E5C00BB61FB690433062B02D9FB69033B00E041
:100E6C0000237B614FF0FF32BB6902FA03F3DA43D4
:100E7C00BB681A407B699A404FF0FF317B6901FADD
:100E8C0003F3D9437B680B40134318462437BD4604
:100E9C0080BC704780B582B000AF78607B68013B46
:100EAC00B3F1807F01D301230FE00A4A7B68013B39
:100EBC0053600F214FF0FF30FFF790FF054B0022DE
:100ECC009A60044B07221A60002318460837BD4667
:100EDC0080BD00BF10E000E080B582B000AF78604C
:100EEC007868FFF749FF00BF0837BD4680BD80B565
:100EFC0086B000AF0346B9607A60FB7300237B6158
:100F0C00FFF75EFF78617A68B9687869FFF790FF40
:100F1C00024697F90F3011461846FFF75FFF00BFE6
:100F2C001837BD4680BD80B582B000AF7860786858
:100F3C00FFF7B0FF034618460837BD4680BD0000DA
:100F4C0080B48BB000AF7860396000237B620023E3
:100F5C003B6248E101227B6A02FA03F3FB613B68C6
:100F6C001B68FA691340BB61BA69FB699A4240F08D
:100F7C0037813B685B68A34A93425ED0A14A934297
:100F8C0075D8A14A934258D09F4A93426FD89F4A32
:100F9C00934252D09D4A934269D89D4A93424CD079
:100FAC009B4A934263D89B4A934246D0994A9342B8
:100FBC005DD8122B2AD8122B59D801A252F823F043
:100FCC0047100008211000083310000875100008A5
:100FDC007B1000087B1000087B1000087B100008B9
:100FEC007B1000087B1000087B1000087B100008A9
:100FFC007B1000087B1000087B1000087B10000899
:10100C007B100008291000083D100008824A93420A
:10101C0013D02CE03B68DB683B6229E03B68DB6863
:10102C0004333B6224E03B68DB6808333B621FE01F
:10103C003B68DB680C333B621AE03B689B68002B17
:10104C0002D104233B6213E03B689B68012B05D162
:10105C0008233B627B68FA691A6109E008233B624A
:10106C007B68FA695A6103E000233B6200E000BF31
:10107C00BB69FF2B01D87B6801E07B6804337B6183
:10108C00BB69FF2B02D87B6A9B0002E07B6A083BA2
:10109C009B003B617B691A680F213B6901FA03F3E2
:1010AC00DB431A40396A3B6901FA03F31A437B6943
:1010BC001A603B685B6803F08053002B00F0908053
:1010CC00564B9B69554A43F001039361534B9B6903
:1010DC0003F00103BB60BB68514A7B6A9B08023377
:1010EC0052F82330FB607B6A03F003039B000F2252
:1010FC0002FA03F3DB43FA681340FB607B68494A4E
:10110C0093420DD07B68484A934207D07B68474A8C
:10111C00934201D1022304E0032302E0012300E007
:10112C0000237A6A02F0030292009340FA68134398
:10113C00FB603B497B6A9B080233FA6841F8232029
:10114C003B685B6803F48013002B06D0384B9A681D
:10115C003749BB6913438B6006E0354B9A68BB6912
:10116C00DB43334913408B603B685B6803F400132B
:10117C00002B06D02E4BDA682D49BB691343CB608C
:10118C0006E02B4BDA68BB69DB4329491340CB6083
:10119C003B685B6803F40033002B06D0244B5A6881
:1011AC002349BB6913434B6006E0214B5A68BB696A
:1011BC00DB431F4913404B603B685B6803F480338F
:1011CC00002B06D01A4B1A681949BB6913430B60E4
:1011DC0006E0174B1A68BB69DB43154913400B60DB
:1011EC007B6A01337B623B681A687B6A22FA03F3E1
:1011FC00002B7FF4AFAE00BF00BF2C37BD4680BCC8
:10120C00704700BF000032100000311000002210A7
:10121C0000002110000012100000111000100240FC
:10122C000000014000080140000C0140001001408A
:10123C000004014080B483B000AF78600B467B8023
:10124C0013467B707B78002B03D07A887B681A61FD
:10125C0003E07B881A047B681A6100BF0C37BD461B
:10126C0080BC704780B586B000AF78607B68002B7F
:10127C0001D101236CE27B681B6803F00103002B96
:10128C0000F08780924B5B6803F00C03042B0CD0AE
:10129C008F4B5B6803F00C03082B12D18C4B5B68F3
:1012AC0003F48033B3F5803F0BD1894B1B6803F4F7
:1012BC000033002B6CD07B685B68002B68D101235A
:1012CC0046E27B685B68B3F5803F06D1804B1B68B8
:1012DC007F4A43F4803313602EE07B685B68002BFD
:1012EC000CD17B4B1B687A4A23F480331360784B08
:1012FC001B68774A23F4802313601DE07B685B68CE
:10130C00B3F5A02F0CD1724B1B68714A43F48023A8
:10131C0013606F4B1B686E4A43F4803313600BE011
:10132C006B4B1B686A4A23F480331360684B1B6851
:10133C00674A23F4802313607B685B68002B13D00F
:10134C00FFF7ECFC386108E0FFF7E8FC02463B696C
:10135C00D31A642B01D90323FAE15D4B1B6803F408
:10136C000033002BF0D014E0FFF7D8FC386108E014
:10137C00FFF7D4FC02463B69D31A642B01D9032333
:10138C00E6E1534B1B6803F40033002BF0D100E073
:10139C0000BF7B681B6803F00203002B63D04C4B2F
:1013AC005B6803F00C03002B0BD0494B5B6803F01C
:1013BC000C03082B1CD1464B5B6803F48033002BC9
:1013CC0016D1434B1B6803F00203002B05D07B683E
:1013DC001B69012B01D00123BAE13D4B1B6823F0A3
:1013EC00F8027B685B69DB00394913430B603AE018
:1013FC007B681B69002B20D0364B01221A60FFF74B
:10140C008DFC386108E0FFF789FC02463B69D31A72
:10141C00022B01D903239BE12D4B1B6803F0020324
:10142C00002BF0D02A4B1B6823F0F8027B685B6919
:10143C00DB00274913430B6015E0264B00221A6092
:10144C00FFF76CFC386108E0FFF768FC02463B696B
:10145C00D31A022B01D903237AE11D4B1B6803F02D
:10146C000203002BF0D17B681B6803F00803002BF0
:10147C003AD07B689B69002B19D0174B01221A605C
:10148C00FFF74CFC386108E0FFF748FC02463B696B
:10149C00D31A022B01D903235AE10D4B5B6A03F0DB
:1014AC000203002BF0D0012000F09AFA1CE00A4B4A
:1014BC0000221A60FFF732FC38610FE0FFF72EFCB8
:1014CC0002463B69D31A022B08D9032340E100BF23
:1014DC000010024000004242800442429E4B5B6A74
:1014EC0003F00203002BE9D17B681B6803F00403B3
:1014FC00002B00F0A6800023FB75974BDB6903F0F3
:10150C008053002B0DD1944BDB69934A43F08053ED
:10151C00D361914BDB6903F08053BB60BB68012343
:10152C00FB758E4B1B6803F48073002B18D18B4B0F
:10153C001B688A4A43F480731360FFF7EFFB386132
:10154C0008E0FFF7EBFB02463B69D31A642B01D989
:10155C000323FDE0814B1B6803F48073002BF0D058
:10156C007B68DB68012B06D17B4B1B6A7A4A43F004
:10157C00010313622DE07B68DB68002B0CD1764BEA
:10158C001B6A754A23F001031362734B1B6A724A80
:10159C0023F0040313621CE07B68DB68052B0CD181
:1015AC006D4B1B6A6C4A43F0040313626A4B1B6A53
:1015BC00694A43F0010313620BE0674B1B6A664AEE
:1015CC0023F001031362644B1B6A634A23F0040388
:1015DC0013627B68DB68002B15D0FFF79FFB38612B
:1015EC000AE0FFF79BFB02463B69D31A41F28832B3
:1015FC00934201D90323ABE0574B1B6A03F0020360
:10160C00002BEED014E0FFF789FB38610AE0FFF7FE
:10161C0085FB02463B69D31A41F28832934201D9C9
:10162C00032395E04C4B1B6A03F00203002BEED115
:10163C00FB7D012B05D1484BDB69474A23F08053D6
:10164C00D3617B68DB69002B00F08180424B5B68C7
:10165C0003F00C03082B61D07B68DB69022B46D1AD
:10166C003F4B00221A60FFF759FB386108E0FFF787
:10167C0055FB02463B69D31A022B01D9032367E0C1
:10168C00354B1B6803F00073002BF0D17B681B6A91
:10169C00B3F5803F08D1304B5B6823F400327B6894
:1016AC009B682D4913434B602B4B5B6823F47412DE
:1016BC007B68196A7B685B6A0B43274913434B6051
:1016CC00274B01221A60FFF729FB386108E0FFF76E
:1016DC0025FB02463B69D31A022B01D9032337E0C1
:1016EC001D4B1B6803F00073002BF0D02FE01C4B3C
:1016FC0000221A60FFF712FB386108E0FFF70EFBBF
:10170C0002463B69D31A022B01D9032320E0124B6A
:10171C001B6803F00073002BF0D118E07B68DB69C9
:10172C00012B01D1012313E00B4B5B68FB60FB68C1
:10173C0003F480327B681B6A9A4206D1FB6803F47F
:10174C0070127B685B6A9A4201D0012300E000238F
:10175C0018461837BD4680BD00100240007000408E
:10176C006000424280B584B000AF786039607B681D
:10177C00002B01D10123D0E06A4B1B6803F0070357
:10178C003A689A4210D9674B1B6823F007026549E7
:10179C003B6813430B60634B1B6803F007033A6809
:1017AC009A4201D00123B8E07B681B6803F0020366
:1017BC00002B20D07B681B6803F00403002B05D0A2
:1017CC00594B5B68584A43F4E06353607B681B6871
:1017DC0003F00803002B05D0534B5B68524A43F4CB
:1017EC0060535360504B5B6823F0F0027B689B683E
:1017FC004D4913434B607B681B6803F00103002BBE
:10180C0040D07B685B68012B07D1474B1B6803F406
:10181C000033002B15D101237FE07B685B68022B22
:10182C0007D1414B1B6803F00073002B09D1012336
:10183C0073E03D4B1B6803F00203002B01D1012325
:10184C006BE0394B5B6823F003027B685B683649BD
:10185C0013434B60FFF762FAF8600AE0FFF75EFA99
:10186C000246FB68D31A41F28832934201D9032312
:10187C0053E02D4B5B6803F00C027B685B689B00AC
:10188C009A42EBD1274B1B6803F007033A689A4244
:10189C0010D2244B1B6823F0070222493B681343E8
:1018AC000B60204B1B6803F007033A689A4201D087
:1018BC00012332E07B681B6803F00403002B08D083
:1018CC00194B5B6823F4E0627B68DB6816491343B1
:1018DC004B607B681B6803F00803002B09D0124B8C
:1018EC005B6823F460527B681B69DB000E49134371
:1018FC004B6000F021F802460B4B5B681B0903F0B0
:10190C000F030A49CB5C22FA03F3094A1360094B13
:10191C001B681846FFF7C0F9002318461037BD4660
:10192C0080BD00BF0020024000100240981A000841
:10193C00000000200400002080B487B000AF00231A
:10194C00FB600023BB6000237B6100237B600023D2
:10195C003B611E4B5B68FB60FB6803F00C03042BC4
:10196C0002D0082B03D027E0194B3B6127E0FB6822
:10197C009B0C03F00F03174AD35C7B60FB6803F4EA
:10198C008033002B10D0114B5B685B0C03F0010310
:10199C00114AD35CBB607B680D4A02FB03F2BB6847
:1019AC00B2FBF3F37B6104E07B680C4A02FB03F3AC
:1019BC007B617B693B6102E0054B3B6100BF3B698E
:1019CC0018461C37BD4680BC704700BF0010024053
:1019DC0000127A00A81A0008B81A000800093D0085
:1019EC0080B485B000AF78600A4B1B680A4AA2FB32
:1019FC0003235B0A7A6802FB03F3FB6000BFFB68FE
:101A0C005A1EFA60002BF9D100BF00BF1437BD4637
:101A1C0080BC704700000020D34D621070B50026CA
:101A2C000C4D0D4C641BA410A64209D100F022F8F9
:101A3C0000260A4D0A4C641BA410A64205D170BDA9
:101A4C0055F8043B98470136EEE755F8043B9847A8
:101A5C000136F2E7BC1A0008BC1A0008BC1A0008D0
:101A6C00C01A000803460244934200D1704703F8A1
:101A7C00011BF9E7F8B500BFF8BC08BC9E467047DF
:0C1A8C00F8B500BFF8BC08BC9E467047CF
:101A98000000000000000000010203040607080916
:101AA80002030405060708090A0B0C0D0E0F101097
:041AB8000102000027
:041ABC0031010008EC
:041AC0000D0100080C
:0C1AC4000024F4001000000001000000ED
:0400000508000C2DB6
:00000001FF
